:100000000C942A000C9447000C9447000C94470071
:100010000C9447000C9447000C9447000C94470044
:100020000C9447000C9449000C9447000C94470032
:100030000C9447000C9447000C9447000C94470024
:100040000C9447000C9447000C9447000C94470014
:100050000C94470011241FBECFE5D8E0DEBFCDBF12
:1000600010E0A0E6B0E0EEE9F5E102C005900D92E7
:10007000A039B107D9F717E0A0E9B0E001C01D929F
:10008000A133B107E1F70E9477000C94CD0A0C94DC
:1000900000001F920F920FB60F9211242F933F93DF
:1000A0004F935F936F937F938F939F93AF93BF9380
:1000B000EF93FF930E945E020E948E000E949F03B6
:1000C0000E9411050E949C040E945606FF91EF9128
:1000D000BF91AF919F918F917F916F915F914F9160
:1000E0003F912F910F900FBE0F901F9018950E9477
:1000F00035020E943F040E9489000E940B0581E0A6
:1001000066E00E94A3050E94560685B7806885BFF9
:10011000FCCF10920D07109290000895CF9380911C
:100120009100909192000A96909392008093910092
:100130008832910511F510929200109291008091F1
:100140009000823021F40E94A0058130B1F00E941D
:100150008203813019F0823081F408C0C1E0C0937D
:1001600090000E947D04C0930D0707C0C2E0C093B9
:1001700090000E947D04C0930D07CF910895809157
:100180009000089587E990E00895E199FECF9FBB24
:100190008EBB6DBBE29AE19A0895CF92DF92EF9207
:1001A000FF920F931F93CF93DF93CDB7DEB72997BD
:1001B0000FB6F894DEBF0FBECDBF09831A832B8321
:1001C0003C834D835E836F83788789876E010894B3
:1001D000C11CD11CEE24FF24E39400E010E00430A5
:1001E00088F48091930090919400880F991F880F54
:1001F000991F880F991F8E0D9F1DF60160810E9427
:10020000C50018C08091930090919400880F991FA9
:10021000880F991F880F991FF801E370F07025E08F
:1002200030E02C0F3D1FE20FF31F8E0D9F1D6081EC
:100230000E94C5000F5F1F4F0894E11CF11C089439
:10024000C11CD11C0830110551F629960FB6F8943F
:10025000DEBF0FBECDBFDF91CF911F910F91FF90F9
:10026000EF90DF90CF9008951F93CF93DF93EC0131
:10027000172F0E94C500CE010196612F0E94C50074
:10028000DF91CF911F910895CF92DF92EF92FF926D
:100290000F931F93CF93DF937C01D62EC72E062F8B
:1002A000172FC0E0D0E00DC0F80161918F01CE01A1
:1002B0008E0D9F1D0E94C500F4E0C030DF0769F07D
:1002C0002196AD2DBC2DFD0101900020E9F731975D
:1002D000EA1BFB0BCE17DF0738F3DF91CF911F919D
:1002E0000F91FF90EF90DF90CF900895E199FECFAE
:1002F0009FBB8EBBE09A8DB30895CF92DF92FF92A1
:100300000F931F93CF93DF93CDB7DEB729970FB627
:10031000F894DEBF0FBECDBF8091950090919600FE
:100320000A9690939600809395008832910509F083
:1003300061C010929600109295000E94BF0081301B
:1003400021F0823009F056C00EC080919300909148
:100350009400880F991F880F991F880F991F1816EE
:10036000190624F147C00E94A005882309F042C065
:10037000CE0101960E94960509811A812B813C814C
:100380004D815E816F81788589850E94CD00609165
:100390009300709194006F5F7F4F7093940060930F
:1003A000930080E090E00E94C50024C000E010E0CF
:1003B000FF240F2EF7E9CF2EF0E0DF2EF02DC8013D
:1003C00001960E947601F801EE0FFF1FEC0DFD1D56
:1003D00080831182F3940F2D10E08091930090910F
:1003E0009400880F991F880F991F880F991F08176D
:1003F00019072CF329960FB6F894DEBF0FBECDBFB8
:10040000DF91CF911F910F91FF90DF90CF900895D2
:1004100080E090E00E9476018F3F29F410929400D2
:100420001092930008958093930010929400089581
:10043000EF92FF920F931F93CF93DF937C01C0E065
:10044000D0E0CE018E0D9F1D0E947601080F111D78
:100450002196C430D105A9F7802F912FDF91CF913C
:100460001F910F91FF90EF90089580EF81BB8FEF68
:1004700082BB9AE09093D70681E080930E0710929A
:1004800012079093110780931007809315078093AC
:100490001A0780931F07089580FF0CC081FF06C0D4
:1004A00082FF06C083FD08C083E0089581E00895BF
:1004B00082E0089580E008958AE008950F931F93E5
:1004C000CF93DF938091D806865F8093D8068A30D9
:1004D00009F013C11092D80682B3806F82BB72B349
:1004E0006091D906062F10E098012C5F3F4F41E044
:1004F00050E0CA0102C0880F991F2A95E2F7809543
:10050000872382BBE801CC0FDD1FCC0FDD1FC00F9E
:10051000D11FC25FD84F898188836C8380B38F706D
:100520000E944C028B838A3061F020B330E0A90135
:1005300002C0559547958A95E2F7CA018170898373
:100540000BC0F801EE0FFF1FEE0FFF1FE00FF11FB2
:10055000E25FF84F81E08183F801EE0FFF1FEE0F9D
:10056000FF1FE00FF11FE25FF84F82818230A1F19F
:10057000833020F4813009F084C007C0833009F44F
:1005800045C0843009F07DC065C0F801EE0FFF1F43
:10059000EE0FFF1FE00FF11FE25FF84F808188230D
:1005A00009F06FC0F801EE0FFF1FEE0FFF1FE00F05
:1005B000F11FE25FF84F8181882309F062C0F801E2
:1005C000EE0FFF1FEE0FFF1F0E0F1F1FF801E25F60
:1005D000F84F82E0828355C0F801EE0FFF1FEE0F47
:1005E000FF1FE00FF11FE25FF84F8181882309F0C0
:1005F00048C0F801EE0FFF1FEE0FFF1F0E0F1F1F69
:10060000F801E25FF84F83E082833BC0F801EE0F10
:10061000FF1FEE0FFF1FE00FF11FE25FF84F808119
:10062000813079F5F801EE0FFF1FEE0FFF1FE00F8D
:10063000F11FE25FF84F8181813019F5F801EE0F6B
:10064000FF1FEE0FFF1FE00FF11FE25FF84F84E086
:10065000828317C0F801EE0FFF1FEE0FFF1FE00FA0
:10066000F11FE25FF84F8181813059F4F801EE0FFC
:10067000FF1FEE0FFF1F0E0F1F1FF801E25FF84F65
:100680008283209111072A30A9F4209116072A307D
:1006900059F420911B072A3051F4209120072A3069
:1006A00021F183E090E008C081E090E005C082E0A5
:1006B00090E002C080E090E030E0FC01EE0FFF1F10
:1006C000EE0FFF1FE80FF91FE25FF84F9481F90169
:1006D000EE0FFF1FEE0FFF1FE90FF11DE05AFF4F56
:1006E00090819093D7068093DA068091D9068F5F28
:1006F000843009F480E08093D906DF91CF911F9177
:100700000F9108958091DA0690E0FC01EE0FFF1F33
:10071000EE0FFF1F8E0F9F1FFC01E25FF84F8281DB
:10072000823029F48091D7068093DB0608958AE011
:10073000089581E080930C078093DC0608951F9351
:10074000CF93DF938091DD069091DE060A96909319
:10075000DE068093DD068832910509F063C01092B1
:10076000DE061092DD060E94C2009093E0068093A0
:10077000DF060E94BF00813009F054C00E9482034E
:10078000C82F8A3019F16091E106633050F46C5F34
:1007900080E00E9481048091E1068F5F8093E106F2
:1007A00004C06D5F81E00E9481048C2F0E94570479
:1007B0008091E106853010F01092E106C0930407A5
:1007C00010920707C093080710920B0780910C073F
:1007D000882341F5C091DF06D091E006E4E0F7E020
:1007E0009F01CF010496DE0160E05D9141915417B5
:1007F00011F41F5F01C0162FE817F907B1F7E8E001
:10080000F7E0C901089640E039912191321711F4BF
:100810001F5F01C0142FE817F907B1F7183011F462
:100820001092DC06DF91CF911F9108958091DC0634
:100830000895C1989BB3282F207F9F70922B9BBB5C
:10084000C39892E09A95F1F700C0C39A92E09A9506
:10085000F1F700C09BB38295807F9F70892B8BBB83
:10086000C39882E08A95F1F700C0C39A92E09A9506
:10087000F1F700C084E690E00197F1F7089580EF6A
:100880008ABB8EE087BB83E30E94190482E30E9447
:10089000190488E20E9419048CE00E94190481E086
:1008A0000E94190482E80E941904C2980895C19A0E
:1008B0009BB3282F207F9F70922B9BBBC39892E005
:1008C0009A95F1F700C0C39A92E09A95F1F700C0AB
:1008D0009BB38295807F9F70892B8BBBC39882E0EE
:1008E0008A95F1F700C0C39A92E09A95F1F700C09B
:1008F00084E690E00197F1F7089581E00E941904E1
:100900000895882329F4862F80580E941904089599
:10091000862F80540E9419040895CF93DF93EC0131
:100920008881882331F021960E9457048991882379
:10093000D9F7DF91CF9108958091E2069091E30677
:100940000A969093E3068093E2068832910509F0B7
:100950003FC01092E3061092E20680910D078130AD
:10096000B1F0813018F0823099F522C080E060E06B
:100970000E94810480E790E00E948D0481E060E0A5
:100980000E94810488E790E00E948D04089580E031
:1009900060E00E94810482E890E00E948D0481E082
:1009A00060E00E94810487E890E00E948D04089531
:1009B00080E060E00E94810482E890E00E948D0463
:1009C00081E060E00E94810487E890E00E948D044D
:1009D0000895CF93DF93EA010E948104CE010E9423
:1009E0008D04DF91CF9108951092F406009771F075
:1009F000E4EFF6E02AE030E0B9010E94B90A805D38
:100A00008293862F972F0097B9F702C0EEE8F0E0A7
:100A10008E2F9F2F089581E0809303078093F50622
:100A20000895CF938091F6069091F7060A969093D9
:100A3000F7068093F6068832910509F075C010928A
:100A4000F7061092F6060E94BF00823009F06CC0D3
:100A500080910307813009F063C00E948203C82F90
:100A60008A3009F454C06091F8067091F906633039
:100A7000710574F46C5F80E00E9481048091F80637
:100A80009091F90601969093F9068093F8060DC0AF
:100A90006C5F81E00E9481048091F8069091F906D4
:100AA00001969093F9068093F8068C2F805D0E9442
:100AB00057048091F8069091F9068530910524F04D
:100AC0001092F9061092F8068091FA06833048F4E5
:100AD000EBEFF6E0E80FF11DC0838F5F8093FA061D
:100AE00016C0833031F41092FE0684E08093FA063B
:100AF0001BC0E82FF0E0E370F070E550F94FC483BD
:100B00008F5F8093FA06873079F410920207809104
:100B1000FA06873049F4109203071092FA0604C0CF
:100B2000882311F41092F506CF910895E82FF92F3C
:100B3000ABEFB6E029E00D9001922150E1F7089566
:100B40008091F50608957894813019F0823019F576
:100B500013C089B7846089BF8FB58E7F8FBD8FB575
:100B60008D7F8FBD8EB5877F8EBD8EB58F7E8EBDFE
:100B700081E080932B070FC08FB58E7F8FBD8FB51F
:100B80008D7F8FBD8EB588608EBD8EB58F7E8EBDFC
:100B900082E080932B07633089F1643030F4613058
:100BA00069F0623009F081C013C0653009F452C0A9
:100BB0006530D0F1663009F078C062C08EB58E7FA6
:100BC0008EBD8EB58D7F8EBD8EB58B7F8EBD08950B
:100BD0008EB581608EBD8EB58D7F8EBD8EB58B7FBF
:100BE0008EBD80E090E0A0E8BFE380932207909361
:100BF0002307A0932407B093250708958EB58E7F11
:100C00008EBD8EB582608EBD8EB58B7F8EBD80E031
:100C100090E0A0E0B1E48093220790932307A09393
:100C20002407B093250708958EB581608EBD8EB5DB
:100C300082608EBD8EB58B7F8EBD80E090E0A0E897
:100C4000B2E48093220790932307A0932407B093E4
:100C5000250708958EB58E7F8EBD8EB58D7F8EBD96
:100C60008EB584608EBD80E090E0A0E8B3E4809310
:100C7000220790932307A0932407B0932507089594
:100C80008EB581608EBD8EB58D7F8EBD8EB5846034
:100C90008EBD80E090E0A0E8B4E4809322079093BA
:100CA0002307A0932407B093250708950F931F935C
:100CB0006091220770912307809124079091250766
:100CC00020E030E040E05EE30E94560A2DEB37E37F
:100CD00046E855E30E94560A9B01AC016BE077EDB4
:100CE00083E29CE30E94710920E030E040E85FE38A
:100CF0000E940C09562F472F382F292F80912B0740
:100D0000813019F0823019F514C060E070E080E89D
:100D100097E4E22F052F142F232F3E2FA9019801CE
:100D20000E940C090E94D909DC01CB019DBD8CBD3C
:100D30000EC0852F942FA32FB22FBC01CD010E948E
:100D4000D909DC01CB019BBD8ABD1DBC1CBC1F9118
:100D50000F91089578948230B9F0833018F481307F
:100D600099F505C08330E9F0843071F524C089B766
:100D7000816089BF83B78F7B83BF83B7877F83BF42
:100D800081E08093260720C089B7826089BF83B73E
:100D90008F7B83BF83B7886083BF82E08093260701
:100DA00013C083B7806483BF83B7877F83BF83E02B
:100DB0008093260709C083B7806483BF83B78860A8
:100DC00083BF84E080932607633089F1643030F478
:100DD000613069F0623009F081C013C0653009F4F8
:100DE00052C06530D0F1663009F078C062C083B778
:100DF0008E7F83BF83B78D7F83BF83B78B7F83BF96
:100E0000089583B7816083BF83B78D7F83BF83B726
:100E10008B7F83BF80E090E0A0E8BFE380932C0746
:100E200090932D07A0932E07B0932F07089583B7B3
:100E30008E7F83BF83B7826083BF83B78B7F83BF7F
:100E400080E090E0A0E0B1E480932C0790932D0720
:100E5000A0932E07B0932F07089583B7816083BFB7
:100E600083B7826083BF83B78B7F83BF80E090E0CE
:100E7000A0E8B2E480932C0790932D07A0932E074F
:100E8000B0932F07089583B78E7F83BF83B78D7F7D
:100E900083BF83B7846083BF80E090E0A0E8B3E4C1
:100EA00080932C0790932D07A0932E07B0932F07C4
:100EB000089583B7816083BF83B78D7F83BF83B776
:100EC000846083BF80E090E0A0E8B4E480932C07C6
:100ED00090932D07A0932E07B0932F0708950F939B
:100EE0001F9360912C0770912D0780912E07909190
:100EF0002F0720E030E040E05EE30E94560A2DEB31
:100F000037E346E855E30E94560A9B01AC016BE0CB
:100F100077ED83E29CE30E94710920E030E040E835
:100F20005FE30E940C09562F472F382F292F8091FD
:100F30002607813019F08230E1F411C060E070E0E2
:100F40008FE793E4E22F052F142F232F3E2FA901C3
:100F500098010E940C090E94D90962BF0AC0852F1E
:100F6000942FA32FB22FBC01CD010E94D9096CBFD1
:100F700012BE1F910F9108957894413019F04230BC
:100F800041F404C092B5977F92BD03C092B59860BA
:100F900092BD8230B9F0833018F4813099F505C0E4
:100FA0008330E9F0843071F524C089B7806489BF4B
:100FB00085B58F7B85BD85B5877F85BD81E08093B5
:100FC000300720C089B7806889BF85B58F7B85BD14
:100FD00085B5886085BD82E08093300713C085B5F4
:100FE000806485BD85B5877F85BD83E080933007AC
:100FF00009C085B5806485BD85B5886085BD84E000
:1010000080933007643009F462C0653040F4623088
:10101000E1F0633080F5613009F0B0C00CC066309B
:1010200009F497C0663008F47EC06730D1F16830AB
:1010300009F0A4C062C085B58E7F85BD85B58D7F62
:1010400085BD85B58B7F85BD089585B5816085BDDE
:1010500085B58D7F85BD85B58B7F85BD80E090E0B2
:10106000A0E8BFE38093270790932807A093290760
:10107000B0932A07089585B58E7F85BD85B58260BA
:1010800085BD85B58B7F85BD80E090E0A0E0B1E4B3
:101090008093270790932807A0932907B0932A07E6
:1010A000089585B5816085BD85B5826085BD85B5AE
:1010B0008B7F85BD80E090E0A0E0B2E480932707BD
:1010C00090932807A0932907B0932A07089585B520
:1010D0008E7F85BD85B58D7F85BD85B5846085BDD9
:1010E00080E090E0A0E8B2E480932707909328077F
:1010F000A0932907B0932A07089585B5816085BD1F
:1011000085B58D7F85BD85B5846085BD80E090E027
:10111000A0E0B3E48093270790932807A0932907C2
:10112000B0932A07089585B58E7F85BD85B5826009
:1011300085BD85B5846085BD80E090E0A0E8B3E41E
:101140008093270790932807A0932907B0932A0735
:10115000089585B5816085BD85B5826085BD85B5FD
:10116000846085BD80E090E0A0E8B4E48093270728
:1011700090932807A0932907B0932A0708950F9307
:101180001F936091270770912807809129079091FC
:101190002A0720E030E040E05EE30E94560A2DEB93
:1011A00037E346E855E30E94560A9B01AC016BE029
:1011B00077ED83E29CE30E94710920E030E040E893
:1011C0005FE30E940C09562F472F382F292F80915B
:1011D0003007813019F08230E1F411C060E070E036
:1011E0008FE793E4E22F052F142F232F3E2FA90121
:1011F00098010E940C090E94D90964BD0AC0852F7C
:10120000942FA32FB22FBC01CD010E94D90963BD39
:1012100014BC1F910F9108955058BB27AA270ED0D8
:101220000BC1FCD030F001D120F031F49F3F11F41C
:101230001EF4F1C00EF4E095E7FBE7C0E92F0DD1F5
:1012400080F3BA17620773078407950718F071F4E3
:101250009EF525C10EF4E0950B2EBA2FA02D0B01A3
:10126000B90190010C01CA01A0011124FF27591BEB
:1012700099F0593F50F4503E68F11A16F040A22FF1
:10128000232F342F4427585FF3CF46953795279562
:10129000A795F0405395C9F77EF41F16BA0B620B61
:1012A000730B840BBAF09150A1F0FF0FBB1F661FA8
:1012B000771F881FC2F70EC0BA0F621F731F841FEB
:1012C00048F4879577956795B795F7959E3F08F011
:1012D000B3CF9395880F08F09927EE0F97958795D0
:1012E00008950CD0A9C0A1D040F098D030F021F4DE
:1012F0005F3F19F08AC05111D3C08DC0AED098F3B2
:101300009923C9F35523B1F3951B550BBB27AA2786
:1013100062177307840738F09F5F5F4F220F331FF8
:10132000441FAA1FA9F333D00E2E3AF0E0E830D0C4
:1013300091505040E695001CCAF729D0FE2F27D0C7
:10134000660F771F881FBB1F261737074807AB0795
:10135000B0E809F0BB0B802DBF01FF2793585F4F0A
:101360002AF09E3F510568F050C09AC05F3FECF3F1
:10137000983EDCF3869577956795B795F7959F5FCF
:10138000C9F7880F911D9695879597F90895E1E023
:10139000660F771F881FBB1F621773078407BA0782
:1013A00020F0621B730B840BBA0BEE1F88F7E095DD
:1013B00008955BD088F09F5790F0B92F9927B751C7
:1013C000A0F0D1F0660F771F881F991F1AF0BA9509
:1013D000C9F712C0B13081F062D0B1E008955FC0AA
:1013E000672F782F8827B85F39F0B93FCCF38695FF
:1013F00077956795B395D9F73EF49095809570955C
:1014000061957F4F8F4F9F4F089597F99F6780E8B1
:1014100070E060E008959FEF80EC089500240A9446
:101420001616170618060906089500240A941216BF
:101430001306140605060895092E0394000C11F4F2
:10144000882352F0BB0F40F4BF2B11F460FF04C09F
:101450006F5F7F4F8F4F9F4F089557FD9058440FF8
:10146000551F59F05F3F71F04795880F97FB991F03
:1014700061F09F3F79F087950895121613061406C0
:10148000551FF2CF4695F1DF08C01616170618064D
:10149000991FF1CF86957105610508940895E89428
:1014A000BB2766277727CB0197F908950BD0C4CFC8
:1014B000B5DF28F0BADF18F0952309F0A6CFABCF3F
:1014C0001124EECFCADFA0F3959FD1F3950F50E022
:1014D000551F629FF001729FBB27F00DB11D639FE6
:1014E000AA27F00DB11DAA1F649F6627B00DA11D8C
:1014F000661F829F2227B00DA11D621F739FB00D32
:10150000A11D621F839FA00D611D221F749F3327A1
:10151000A00D611D231F849F600D211D822F762F3A
:101520006A2F11249F5750408AF0E1F088234AF037
:10153000EE0FFF1FBB1F661F771F881F9150504083
:10154000A9F79E3F510570F060CFAACF5F3FECF343
:10155000983EDCF3869577956795B795F795E7956F
:101560009F5FC1F7FE2B880F911D9695879597F980
:101570000895AA1BBB1B51E107C0AA1FBB1FA617DA
:10158000B70710F0A61BB70B881F991F5A95A9F72C
:0E15900080959095BC01CD010895F894FFCF91
:10159E000102036104050662070809632A30236409
:1015AE00312D6C6F67696E00322D7369676E207511
:1015BE00700049443A2000706173733A2000300085
:00000001FF
