S00D000074696D65722E73726563F6
S11300000C942A000C9447000C9447000C9447006D
S11300100C9447000C9447000C9447000C94470040
S11300200C9447000C9454050C9447000C9447001E
S11300300C9447000C9447000C9447000C94470020
S11300400C9447000C9447000C9447000C94470010
S11300500C94470011241FBECFE5D8E0DEBFCDBF0E
S113006010E0A0E6B0E0E2EDFEE002C005900D92E3
S1130070A236B107D9F710E0A2E6B0E001C01D92A4
S1130080AD37B107E1F70E947E050C9467070C9425
S11300900000882319F08130A1F40AC08A986623ED
S11300A019F0613071F402C0929A0BC0929809C0A1
S11300B08998662319F0613021F402C0919A01C035
S11300C09198109266001092670010926800109246
S11300D0690010926A0010926B000895882319F049
S11300E0813051F405C080B386958695817008955A
S11300F080B386958170089508952F923F924F9210
S11301005F926F927F928F929F92AF92BF92CF92A3
S1130110DF92EF92FF920F931F93CF93DF9380911F
S11301206000909161008431910531F00A969093BA
S113013061008093600077C007E610E078010894BE
S1130140E108F108CC24DD246894C1F8CE0CDF1C4E
S1130150C0E0D0E00F2EFAE62F2EF0E03F2EF02D77
S113016038014424689441F80F2EF3E05F2EF02DFB
S11301704801D8018C915701F7018083209731F40D
S113018080E00E946E00D3018C9308C0C130D10579
S113019029F481E00E946E00F1018083F6018081E0
S11301A0813089F0813028F08230B9F0833041F514
S11301B01EC0D5018C91813019F5D4018C91813008
S11301C0F9F480831DC0D5018C918130C9F4D40128
S11301D08C918130A9F4408213C0D5018C9188237D
S11301E079F4D4018C91882359F4508209C0D50143
S11301F08C91882329F4D4018C91882309F41082EA
S113020021960D5F1F4FE3E0F0E0EE0EFF1ECE0ED1
S1130210DF1EC230D10509F0ABCF8AE090E09093A5
S1130220610080936000DF91CF911F910F91FF9047
S1130230EF90DF90CF90BF90AF909F908F907F9082
S11302406F905F904F903F902F900895882319F0FE
S1130250813039F403C080916800089580916B0067
S11302600895089510926D0010926C000895809185
S11302706200909163000A969093630080936200F9
S113028084319105F9F4109263001092620080E0C9
S11302900E942601813069F480916C0090916D0078
S11302A0019663E670E00E94400790936D0080938E
S11302B06C0081E00E942601813021F410926D00CF
S11302C010926C00089580916C0090916D006AE02A
S11302D070E00E944007962F0895A29AA39AAA9AC2
S11302E0AB9A662319F06130D1F40DC0882319F05C
S11302F08130A9F404C084B38F6084BB089584B3AF
S11303008F6084BB0895882319F0813041F404C0C0
S113031084B3806F84BB089584B3806F84BB0895D5
S1130320662319F0613051F513C0882319F0813028
S113033029F507C0AA9AAB9885B3807F482B45BBA3
S11303400895AA98AB9A85B3807F482B45BB08953E
S1130350882319F0813091F409C0AA9AAB9885B327
S11303604295407F8F70482B45BB0895AA98AB9A5D
S113037085B34295407F8F70482B45BB0895CF933A
S113038080916400909165000A9690936500809333
S113039064000E946301482FC92F209164003091AA
S11303A065002A30310529F480E061E00E94900163
S11303B010C02431310569F480E061E00E949001AD
S11303C081E061E04C2F0E94900110926500109230
S11303D06400CF9108957894813019F0823019F532
S11303E013C089B7846089BF8FB58E7F8FBD8FB5E9
S11303F08D7F8FBD8EB5877F8EBD8EB58F7E8EBD72
S113040081E0809377000FC08FB58E7F8FBD8FB54D
S11304108D7F8FBD8EB588608EBD8EB58F7E8EBD6F
S113042082E080937700633089F1643030F4613086
S113043069F0623009F081C013C0653009F452C01C
S11304406530D0F1663009F078C062C08EB58E7F19
S11304508EBD8EB58D7F8EBD8EB58B7F8EBD08957E
S11304608EB581608EBD8EB58D7F8EBD8EB58B7F32
S11304708EBD80E090E0A0E8BFE380936E0090938F
S11304806F00A0937000B093710008958EB58E7FB5
S11304908EBD8EB582608EBD8EB58B7F8EBD80E0A5
S11304A090E0A0E0B1E480936E0090936F00A0937D
S11304B07000B093710008958EB581608EBD8EB5C5
S11304C082608EBD8EB58B7F8EBD80E090E0A0E80B
S11304D0B2E480936E0090936F00A0937000B09389
S11304E0710008958EB58E7F8EBD8EB58D7F8EBDC5
S11304F08EB584608EBD80E090E0A0E8B3E4809384
S11305006E0090936F00A0937000B09371000895F3
S11305108EB581608EBD8EB58D7F8EBD8EB58460A7
S11305208EBD80E090E0A0E8B4E480936E009093E8
S11305306F00A0937000B093710008950F931F9300
S113054060916E0070916F008091700090917100C5
S113055020E030E040E05EE30E94DD062DEB37E36F
S113056046E855E30E94DD069B01AC016BE077EDA4
S113057083E29CE30E94F80520E030E040E85FE37A
S11305800E949305562F472F382F292F80917700EB
S1130590813019F0823019F514C060E070E080E811
S11305A097E4E22F052F142F232F3E2FA901980142
S11305B00E9493050E946006DC01CB019DBD8CBDA9
S11305C00EC0852F942FA32FB22FBC01CD010E9402
S11305D06006DC01CB019BBD8ABD1DBC1CBC1F9108
S11305E00F91089578948230B9F0833018F48130F3
S11305F099F505C08330E9F0843071F524C089B7DA
S1130600816089BF83B78F7B83BF83B7877F83BFB5
S113061081E08093720020C089B7826089BF83B76C
S11306208F7B83BF83B7886083BF82E0809372002F
S113063013C083B7806483BF83B7877F83BF83E09E
S11306408093720009C083B7806483BF83B78860D6
S113065083BF84E080937200633089F1643030F4A6
S1130660613069F0623009F081C013C0653009F46B
S113067052C06530D0F1663009F078C062C083B7EB
S11306808E7F83BF83B78D7F83BF83B78B7F83BF09
S1130690089583B7816083BF83B78D7F83BF83B79A
S11306A08B7F83BF80E090E0A0E8BFE38093780075
S11306B090937900A0937A00B0937B00089583B758
S11306C08E7F83BF83B7826083BF83B78B7F83BFF3
S11306D080E090E0A0E0B1E480937800909379000A
S11306E0A0937A00B0937B00089583B7816083BFA1
S11306F083B7826083BF83B78B7F83BF80E090E042
S1130700A0E8B2E48093780090937900A0937A00F3
S1130710B0937B00089583B78E7F83BF83B78D7FAB
S113072083BF83B7846083BF80E090E0A0E8B3E434
S11307308093780090937900A0937A00B0937B0023
S1130740089583B7816083BF83B78D7F83BF83B7E9
S1130750846083BF80E090E0A0E8B4E480937800F4
S113076090937900A0937A00B0937B0008950F933F
S11307701F93609178007091790080917A00909134
S11307807B0020E030E040E05EE30E94DD062DEBDC
S113079037E346E855E30E94DD069B01AC016BE0BC
S11307A077ED83E29CE30E94F80520E030E040E826
S11307B05FE30E949305562F472F382F292F8091EE
S11307C07200813019F08230E1F411C060E070E011
S11307D08FE793E4E22F052F142F232F3E2FA90137
S11307E098010E9493050E94600662BF0AC0852F8B
S11307F0942FA32FB22FBC01CD010E9460066CBFC1
S113080012BE1F910F9108957894413019F042302F
S113081041F404C092B5977F92BD03C092B598602D
S113082092BD8230B9F0833018F4813099F505C057
S11308308330E9F0843071F524C089B7806489BFBE
S113084085B58F7B85BD85B5877F85BD81E0809328
S11308507C0020C089B7806889BF85B58F7B85BD42
S113086085B5886085BD82E080937C0013C085B522
S1130870806485BD85B5877F85BD83E080937C00DA
S113088009C085B5806485BD85B5886085BD84E073
S113089080937C00643009F462C0653040F46230B7
S11308A0E1F0633080F5613009F0B0C00CC066300F
S11308B009F497C0663008F47EC06730D1F168301F
S11308C009F0A4C062C085B58E7F85BD85B58D7FD6
S11308D085BD85B58B7F85BD089585B5816085BD52
S11308E085B58D7F85BD85B58B7F85BD80E090E026
S11308F0A0E8BFE38093730090937400A093750005
S1130900B0937600089585B58E7F85BD85B58260E8
S113091085BD85B58B7F85BD80E090E0A0E0B1E426
S11309208093730090937400A0937500B093760045
S1130930089585B5816085BD85B5826085BD85B521
S11309408B7F85BD80E090E0A0E0B2E480937300EB
S113095090937400A0937500B0937600089585B5C4
S11309608E7F85BD85B58D7F85BD85B5846085BD4C
S113097080E090E0A0E8B2E4809373009093740068
S1130980A0937500B0937600089585B5816085BD08
S113099085B58D7F85BD85B5846085BD80E090E09B
S11309A0A0E0B3E48093730090937400A093750067
S11309B0B0937600089585B58E7F85BD85B5826038
S11309C085BD85B5846085BD80E090E0A0E8B3E492
S11309D08093730090937400A0937500B093760095
S11309E0089585B5816085BD85B5826085BD85B571
S11309F0846085BD80E090E0A0E8B4E48093730057
S1130A0090937400A0937500B093760008950F93AB
S1130A101F936091730070917400809175009091A0
S1130A20760020E030E040E05EE30E94DD062DEB3E
S1130A3037E346E855E30E94DD069B01AC016BE019
S1130A4077ED83E29CE30E94F80520E030E040E883
S1130A505FE30E949305562F472F382F292F80914B
S1130A607C00813019F08230E1F411C060E070E064
S1130A708FE793E4E22F052F142F232F3E2FA90194
S1130A8098010E9493050E94600664BD0AC0852FE8
S1130A90942FA32FB22FBC01CD010E94600663BD29
S1130AA014BC1F910F9108951F920F920FB60F92CD
S1130AB011242F933F934F935F936F937F938F935F
S1130AC09F93AF93BF93EF93FF930E947D000E9487
S1130AD037010E94BF010E949E02FF91EF91BF91D6
S1130AE0AF919F918F917F916F915F914F913F91C2
S1130AF02F910F900FBE0F901F9018950E943201F6
S1130B0080E061E00E94490081E061E00E944900C8
S1130B1080E061E00E946D0181E066E00E94EB01EB
S1130B200E949E02FFCF5058BB27AA270ED00BC1AC
S1130B30FCD030F001D120F031F49F3F11F41EF4C9
S1130B40F1C00EF4E095E7FBE7C0E92F0DD180F387
S1130B50BA17620773078407950718F071F49EF5B6
S1130B6025C10EF4E0950B2EBA2FA02D0B01B9016F
S1130B7090010C01CA01A0011124FF27591B99F00F
S1130B80593F50F4503E68F11A16F040A22F232F1B
S1130B90342F4427585FF3CF469537952795A7956B
S1130BA0F0405395C9F77EF41F16BA0B620B730B12
S1130BB0840BBAF09150A1F0FF0FBB1F661F771F83
S1130BC0881FC2F70EC0BA0F621F731F841F48F438
S1130BD0879577956795B795F7959E3F08F0B3CFBE
S1130BE09395880F08F09927EE0F979587950895A8
S1130BF00CD0A9C0A1D040F098D030F021F45F3FD0
S1130C0019F08AC05111D3C08DC0AED098F3992386
S1130C10C9F35523B1F3951B550BBB27AA276217BC
S1130C207307840738F09F5F5F4F220F331F441F01
S1130C30AA1FA9F333D00E2E3AF0E0E830D0915039
S1130C405040E695001CCAF729D0FE2F27D0660F26
S1130C50771F881FBB1F261737074807AB07B0E865
S1130C6009F0BB0B802DBF01FF2793585F4F2AF07B
S1130C709E3F510568F050C09AC05F3FECF3983E28
S1130C80DCF3869577956795B795F7959F5FC9F7D8
S1130C90880F911D9695879597F90895E1E0660F61
S1130CA0771F881FBB1F621773078407BA0720F0DA
S1130CB0621B730B840BBA0BEE1F88F7E095089543
S1130CC05BD088F09F5790F0B92F9927B751A0F0C7
S1130CD0D1F0660F771F881F991F1AF0BA95C9F7CC
S1130CE012C0B13081F062D0B1E008955FC0672FC7
S1130CF0782F8827B85F39F0B93FCCF3869577957C
S1130D006795B395D9F73EF4909580957095619564
S1130D107F4F8F4F9F4F089597F99F6780E870E04A
S1130D2060E008959FEF80EC089500240A9416165D
S1130D30170618060906089500240A9412161306C5
S1130D40140605060895092E0394000C11F4882353
S1130D5052F0BB0F40F4BF2B11F460FF04C06F5F6F
S1130D607F4F8F4F9F4F089557FD9058440F551F45
S1130D7059F05F3F71F04795880F97FB991F61F019
S1130D809F3F79F087950895121613061406551F90
S1130D90F2CF4695F1DF08C0161617061806991FFC
S1130DA0F1CF86957105610508940895E894BB27F1
S1130DB066277727CB0197F908950BD0C4CFB5DF09
S1130DC028F0BADF18F0952309F0A6CFABCF112491
S1130DD0EECFCADFA0F3959FD1F3950F50E0551FD6
S1130DE0629FF001729FBB27F00DB11D639FAA277C
S1130DF0F00DB11DAA1F649F6627B00DA11D661FCB
S1130E00829F2227B00DA11D621F739FB00DA11DEB
S1130E10621F839FA00D611D221F749F3327A00DA5
S1130E20611D231F849F600D211D822F762F6A2F41
S1130E3011249F5750408AF0E1F088234AF0EE0FC6
S1130E40FF1FBB1F661F771F881F91505040A9F7D3
S1130E509E3F510570F060CFAACF5F3FECF3983E00
S1130E60DCF3869577956795B795F795E7959F5F3A
S1130E70C1F7FE2B880F911D9695879597F90895D4
S1130E8097FB092E07260AD077FD04D00CD006D094
S1130E9000201AF4709561957F4F0895F6F79095A8
S1130EA081959F4F0895AA1BBB1B51E107C0AA1F40
S1130EB0BB1FA617B70710F0A61BB70B881F991FF7
S1130EC05A95A9F780959095BC01CD010895F894A1
S1050ED0FFCF4E
S1050ED20A0010
S9030000FC
