:100000000C942A000C9447000C9447000C94470071
:100010000C9447000C9447000C9447000C94470044
:100020000C9447000C9447020C9447000C94470032
:100030000C9447000C9447000C9447000C94470024
:100040000C9447000C9447000C9447000C94470014
:100050000C94470011241FBECFE5D8E0DEBFCDBF12
:1000600010E0A0E6B0E0E2E7F1E102C005900D92F9
:10007000A036B107D9F710E0A0E6B0E001C01D92AC
:10008000A139B107E1F70E9473020C94B7080C94F0
:100090000000813079F0813018F08230F1F414C022
:1000A0008A98662319F06130C1F402C0929A0895CB
:1000B000929808958998662319F0613071F402C00E
:1000C000919A0895919808958898662319F061305F
:1000D00021F402C0909A08959098089510926C00AF
:1000E00010926D0010926E0010926F0010927000CE
:1000F00010927100109272001092730010927400AE
:100100000895813051F0813018F0823069F409C0CF
:1001100080B3869586958170089580B386958170A9
:10012000089580B38170089508952F923F925F9251
:100130006F927F928F929F92AF92BF92CF92DF92F7
:10014000EF92FF920F931F93CF93DF938091620002
:10015000909163000A9690936300809362008431CB
:10016000910509F08EC01092630010926200809198
:100170006E00813069F48091600090916100019679
:1001800063E070E00E9490089093610080936000AB
:100190000DE610E078010894E108F108CC24DD2494
:1001A0006894C1F8CE0CDF1CC0E0D0E00F2EF0E761
:1001B0002F2EF0E03F2EF02D38010F2EF3E05F2EB2
:1001C000F02D4801D8018C915701F70180832097C9
:1001D00031F480E00E948100D3018C9312C0C130C1
:1001E000D10531F481E00E948100F101808309C0D2
:1001F000C230D10531F482E00E948100A3E7B0E073
:100200008C93F6018081813089F0813028F0823032
:10021000C1F0833049F51FC0D5018C91813021F5A3
:10022000D4018C91813001F580831EC0D5018C9161
:100230008130D1F4D4018C918130B1F482E080839B
:1002400013C0D5018C91882379F4D4018C91882333
:1002500059F4508209C0D5018C91882329F4D40126
:100260008C91882309F4108221960D5F1F4FE3E0E3
:10027000F0E0EE0EFF1ECE0EDF1EC330D10509F0FA
:10028000A0CFDF91CF911F910F91FF90EF90DF9062
:10029000CF90BF90AF909F908F907F906F905F9026
:1002A0003F902F900895813041F0813018F08230D6
:1002B00051F406C080916E000895809171000895F8
:1002C000809174000895089580916000909161007C
:1002D0008130910559F08230910519F0009721F095
:1002E00002C082E00895089580E0089581E00895B5
:1002F000109276001092750010927C0010927B0094
:100300001092780010927700089580916600909185
:1003100067000A9690936700809366008431910588
:1003200009F0A2C010926700109266000E9464015A
:100330008130E1F0813020F0823009F095C042C078
:100340000E94EE02882349F080917B0090917C000E
:10035000019690937C0080937B0080917B0090912C
:100360007C009093780080937700089581E00E944C
:100370005301813049F480917B0090917C0001967B
:1003800090937C0080937B0082E00E945301813037
:1003900049F480917B0090917C00019790937C00C0
:1003A00080937B0080917B0090917C0099232CF4BA
:1003B00010927800109277000895909378008093BF
:1003C0007700089580917500909176009093780061
:1003D0008093770081E00E945301813069F480911D
:1003E0007500909176000196909376008093750049
:1003F00010927A001092790082E00E9453018130BD
:1004000039F481E090E090937A008093790006C0FF
:100410008091790090917A00009731F18091640089
:100420009091650027E180379207C9F480917500AB
:1004300090917600019790937600809375009923B0
:100440002CF4109278001092770004C090937800FA
:10045000809377001092650010926400089544968E
:100460009093650080936400089580917700909147
:1004700078006BE370E00E9490089093780080937E
:1004800077006AE070E00E949008962F08951F920E
:100490000F920FB60F9211242F933F934F935F93B8
:1004A0006F937F938F939F93AF93BF93EF93FF933C
:1004B0000E9495000E94B1020E9485010E944E0395
:1004C0000E942D04FF91EF91BF91AF919F918F9169
:1004D0007F916F915F914F913F912F910F900FBE40
:1004E0000F901F90189580E061E00E94490081E024
:1004F00061E00E94490082E061E00E9449000E94A0
:100500006E0080E061E00E94FC0281E061E00E94F8
:10051000FC0281E066E00E947A030E942D040E94A2
:10052000780180E00E949502FFCF10927E00109229
:100530007D001092800010927F00882309F48F9A2A
:100540000895882339F482B36795662767958F7776
:10055000682B62BB0895882319F482B3805882BB4C
:1005600008950E94640180938100823029F480E024
:1005700060E00E94A1020895813029F480E060E0EB
:100580000E94A102089580916800909169000A96E6
:10059000909369008093680023E0883E9207E9F415
:1005A000109269001092680080E00E94AB02809176
:1005B0007D0090917E00019690937E0080937D0057
:1005C0008630910551F481E090E090938000809313
:1005D0007F0010927E0010927D00089580917F0030
:1005E00090918000009731F01092800010927F006F
:1005F00081E0089580E00895A29AA39AAA9AAB9AFE
:10060000662319F06130D1F40DC0882319F08130D0
:10061000A9F404C084B38F6084BB089584B38F6051
:1006200084BB0895882319F0813041F404C084B359
:10063000806F84BB089584B3806F84BB0895662364
:1006400019F0613051F513C0882319F0813029F574
:1006500007C0AA9AAB9885B3807F482B45BB089505
:10066000AA98AB9A85B3807F482B45BB0895882311
:1006700019F0813091F409C0AA9AAB9885B34295DC
:10068000407F8F70482B45BB0895AA98AB9A85B3DD
:100690004295407F8F70482B45BB0895CF93809142
:1006A0006A0090916B000A9690936B0080936A00A9
:1006B0000E943502482FC92F20916A0030916B00AB
:1006C0002A30310529F480E061E00E941F0310C048
:1006D0002431310569F480E061E00E941F0381E06C
:1006E00061E04C2F0E941F0310926B0010926A0071
:1006F000CF9108957894813019F0823019F513C0A4
:1007000089B7846089BF8FB58E7F8FBD8FB58D7F90
:100710008FBD8EB5877F8EBD8EB58F7E8EBD81E0FD
:1007200080938B000FC08FB58E7F8FBD8FB58D7F6F
:100730008FBD8EB588608EBD8EB58F7E8EBD82E0FA
:1007400080938B00633089F1643030F4613069F05C
:10075000623009F081C013C0653009F452C06530C1
:10076000D0F1663009F078C062C08EB58E7F8EBD44
:100770008EB58D7F8EBD8EB58B7F8EBD08958EB567
:1007800081608EBD8EB58D7F8EBD8EB58B7F8EBD0B
:1007900080E090E0A0E8BFE3809382009093830024
:1007A000A0938400B093850008958EB58E7F8EBD92
:1007B0008EB582608EBD8EB58B7F8EBD80E090E061
:1007C000A0E0B1E48093820090938300A093840022
:1007D000B093850008958EB581608EBD8EB5826020
:1007E0008EBD8EB58B7F8EBD80E090E0A0E8B2E438
:1007F0008093820090938300A0938400B09385003F
:1008000008958EB58E7F8EBD8EB58D7F8EBD8EB5D3
:1008100084608EBD80E090E0A0E8B3E48093820025
:1008200090938300A0938400B093850008958EB5C3
:1008300081608EBD8EB58D7F8EBD8EB584608EBD80
:1008400080E090E0A0E8B4E480938200909383007D
:10085000A0938400B093850008950F931F93609137
:10086000820070918300809184009091850020E047
:1008700030E040E05EE30E942D082DEB37E346E8D0
:1008800055E30E942D089B01AC016BE077ED83E2FC
:100890009CE30E94480720E030E040E85FE30E94CC
:1008A000E306562F472F382F292F80918B00813058
:1008B00019F0823019F514C060E070E080E897E428
:1008C000E22F052F142F232F3E2FA90198010E94FC
:1008D000E3060E94B007DC01CB019DBD8CBD0EC0BC
:1008E000852F942FA32FB22FBC01CD010E94B007FA
:1008F000DC01CB019BBD8ABD1DBC1CBC1F910F91AF
:10090000089578948230B9F0833018F4813099F5E5
:1009100005C08330E9F0843071F524C089B7816067
:1009200089BF83B78F7B83BF83B7877F83BF81E016
:100930008093860020C089B7826089BF83B78F7B90
:1009400083BF83B7886083BF82E08093860013C033
:1009500083B7806483BF83B7877F83BF83E080933F
:10096000860009C083B7806483BF83B7886083BF74
:1009700084E080938600633089F1643030F4613024
:1009800069F0623009F081C013C0653009F452C0CB
:100990006530D0F1663009F078C062C083B78E7FD1
:1009A00083BF83B78D7F83BF83B78B7F83BF08955A
:1009B00083B7816083BF83B78D7F83BF83B78B7F0E
:1009C00083BF80E090E0A0E8BFE380938C00909329
:1009D0008D00A0938E00B0938F00089583B78E7F13
:1009E00083BF83B7826083BF83B78B7F83BF80E081
:1009F00090E0A0E0B1E480938C0090938D00A093F0
:100A00008E00B0938F00089583B7816083BF83B752
:100A1000826083BF83B78B7F83BF80E090E0A0E8D4
:100A2000B2E480938C0090938D00A0938E00B093DD
:100A30008F00089583B78E7F83BF83B78D7F83BF79
:100A400083B7846083BF80E090E0A0E8B3E4809344
:100A50008C0090938D00A0938E00B0938F0008952A
:100A600083B7816083BF83B78D7F83BF83B7846083
:100A700083BF80E090E0A0E8B4E480938C00909382
:100A80008D00A0938E00B0938F0008950F931F9355
:100A900060918C0070918D0080918E0090918F00FC
:100AA00020E030E040E05EE30E942D082DEB37E3CC
:100AB00046E855E30E942D089B01AC016BE077ED01
:100AC00083E29CE30E94480720E030E040E85FE3D7
:100AD0000E94E306562F472F382F292F809186003A
:100AE000813019F08230E1F411C060E070E08FE7EE
:100AF00093E4E22F052F142F232F3E2FA9019801F5
:100B00000E94E3060E94B00762BF0AC0852F942F9F
:100B1000A32FB22FBC01CD010E94B0076CBF12BE43
:100B20001F910F9108957894413019F0423041F4AB
:100B300004C092B5977F92BD03C092B5986092BDF4
:100B40008230B9F0833018F4813099F505C08330D4
:100B5000E9F0843071F524C089B7806489BF85B518
:100B60008F7B85BD85B5877F85BD81E080939000B3
:100B700020C089B7806889BF85B58F7B85BD85B565
:100B8000886085BD82E08093900013C085B5806445
:100B900085BD85B5877F85BD83E08093900009C0C2
:100BA00085B5806485BD85B5886085BD84E080930A
:100BB0009000643009F462C0653040F46230E1F0C6
:100BC000633080F5613009F0B0C00CC0663009F4C4
:100BD00097C0663008F47EC06730D1F1683009F004
:100BE000A4C062C085B58E7F85BD85B58D7F85BD6E
:100BF00085B58B7F85BD089585B5816085BD85B53B
:100C00008D7F85BD85B58B7F85BD80E090E0A0E8B8
:100C1000BFE38093870090938800A0938900B093EE
:100C20008A00089585B58E7F85BD85B5826085BDB6
:100C300085B58B7F85BD80E090E0A0E0B1E4809336
:100C4000870090938800A0938900B0938A0008954C
:100C500085B5816085BD85B5826085BD85B58B7F95
:100C600085BD80E090E0A0E0B2E48093870090939F
:100C70008800A0938900B0938A00089585B58E7F7F
:100C800085BD85B58D7F85BD85B5846085BD80E0DA
:100C900090E0A0E8B2E48093870090938800A0934E
:100CA0008900B0938A00089585B5816085BD85B5BA
:100CB0008D7F85BD85B5846085BD80E090E0A0E036
:100CC000B3E48093870090938800A0938900B09349
:100CD0008A00089585B58E7F85BD85B5826085BD06
:100CE00085B5846085BD80E090E0A0E8B3E48093A2
:100CF000870090938800A0938900B0938A0008959C
:100D000085B5816085BD85B5826085BD85B584600A
:100D100085BD80E090E0A0E8B4E4809387009093E4
:100D20008800A0938900B0938A0008950F931F93C1
:100D300060918700709188008091890090918A006D
:100D400020E030E040E05EE30E942D082DEB37E329
:100D500046E855E30E942D089B01AC016BE077ED5E
:100D600083E29CE30E94480720E030E040E85FE334
:100D70000E94E306562F472F382F292F809190008D
:100D8000813019F08230E1F411C060E070E08FE74B
:100D900093E4E22F052F142F232F3E2FA901980152
:100DA0000E94E3060E94B00764BD0AC0852F942FFD
:100DB000A32FB22FBC01CD010E94B00763BD14BCAC
:100DC0001F910F9108955058BB27AA270ED00BC131
:100DD000FCD030F001D120F031F49F3F11F41EF42B
:100DE000F1C00EF4E095E7FBE7C0E92F0DD180F3E9
:100DF000BA17620773078407950718F071F49EF518
:100E000025C10EF4E0950B2EBA2FA02D0B01B901D0
:100E100090010C01CA01A0011124FF27591B99F070
:100E2000593F50F4503E68F11A16F040A22F232F7C
:100E3000342F4427585FF3CF469537952795A795CC
:100E4000F0405395C9F77EF41F16BA0B620B730B73
:100E5000840BBAF09150A1F0FF0FBB1F661F771FE4
:100E6000881FC2F70EC0BA0F621F731F841F48F499
:100E7000879577956795B795F7959E3F08F0B3CF1F
:100E80009395880F08F09927EE0F97958795089509
:100E90000CD0A9C0A1D040F098D030F021F45F3F31
:100EA00019F08AC05111D3C08DC0AED098F39923E8
:100EB000C9F35523B1F3951B550BBB27AA2762171E
:100EC0007307840738F09F5F5F4F220F331F441F63
:100ED000AA1FA9F333D00E2E3AF0E0E830D091509B
:100EE0005040E695001CCAF729D0FE2F27D0660F88
:100EF000771F881FBB1F261737074807AB07B0E8C7
:100F000009F0BB0B802DBF01FF2793585F4F2AF0DC
:100F10009E3F510568F050C09AC05F3FECF3983E89
:100F2000DCF3869577956795B795F7959F5FC9F739
:100F3000880F911D9695879597F90895E1E0660FC2
:100F4000771F881FBB1F621773078407BA0720F03B
:100F5000621B730B840BBA0BEE1F88F7E0950895A4
:100F60005BD088F09F5790F0B92F9927B751A0F028
:100F7000D1F0660F771F881F991F1AF0BA95C9F72D
:100F800012C0B13081F062D0B1E008955FC0672F28
:100F9000782F8827B85F39F0B93FCCF386957795DD
:100FA0006795B395D9F73EF49095809570956195C6
:100FB0007F4F8F4F9F4F089597F99F6780E870E0AC
:100FC00060E008959FEF80EC089500240A941616BF
:100FD000170618060906089500240A941216130627
:100FE000140605060895092E0394000C11F48823B5
:100FF00052F0BB0F40F4BF2B11F460FF04C06F5FD1
:101000007F4F8F4F9F4F089557FD9058440F551FA6
:1010100059F05F3F71F04795880F97FB991F61F07A
:101020009F3F79F087950895121613061406551FF1
:10103000F2CF4695F1DF08C0161617061806991F5D
:10104000F1CF86957105610508940895E894BB2752
:1010500066277727CB0197F908950BD0C4CFB5DF6A
:1010600028F0BADF18F0952309F0A6CFABCF1124F2
:10107000EECFCADFA0F3959FD1F3950F50E0551F37
:10108000629FF001729FBB27F00DB11D639FAA27DD
:10109000F00DB11DAA1F649F6627B00DA11D661F2C
:1010A000829F2227B00DA11D621F739FB00DA11D4D
:1010B000621F839FA00D611D221F749F3327A00D07
:1010C000611D231F849F600D211D822F762F6A2FA3
:1010D00011249F5750408AF0E1F088234AF0EE0F28
:1010E000FF1FBB1F661F771F881F91505040A9F735
:1010F0009E3F510570F060CFAACF5F3FECF3983E62
:10110000DCF3869577956795B795F795E7959F5F9B
:10111000C1F7FE2B880F911D9695879597F9089535
:1011200097FB092E07260AD077FD04D00CD006D0F5
:1011300000201AF4709561957F4F0895F6F7909509
:1011400081959F4F0895AA1BBB1B51E107C0AA1FA1
:10115000BB1FA617B70710F0A61BB70B881F991F58
:101160005A95A9F780959095BC01CD010895F89402
:02117000FFCFAF
:00000001FF
